{
  "contractName": "Auth",
  "abi": [
    {
      "constant": false,
      "inputs": [
        {
          "name": "_name",
          "type": "string"
        },
        {
          "name": "_email",
          "type": "string"
        },
        {
          "name": "_password",
          "type": "string"
        }
      ],
      "name": "createUser",
      "outputs": [],
      "payable": false,
      "stateMutability": "nonpayable",
      "type": "function"
    },
    {
      "constant": true,
      "inputs": [
        {
          "name": "_email",
          "type": "string"
        }
      ],
      "name": "getUser",
      "outputs": [
        {
          "name": "",
          "type": "string"
        },
        {
          "name": "",
          "type": "string"
        },
        {
          "name": "",
          "type": "string"
        }
      ],
      "payable": false,
      "stateMutability": "view",
      "type": "function"
    },
    {
      "constant": false,
      "inputs": [
        {
          "name": "_email",
          "type": "string"
        },
        {
          "name": "_name",
          "type": "string"
        }
      ],
      "name": "updateName",
      "outputs": [],
      "payable": false,
      "stateMutability": "nonpayable",
      "type": "function"
    },
    {
      "constant": false,
      "inputs": [
        {
          "name": "_email",
          "type": "string"
        },
        {
          "name": "_password",
          "type": "string"
        }
      ],
      "name": "updatePassword",
      "outputs": [],
      "payable": false,
      "stateMutability": "nonpayable",
      "type": "function"
    }
  ],
  "bytecode": "0x608060405234801561001057600080fd5b50610d2b806100206000396000f3fe60806040526004361061005c576000357c01000000000000000000000000000000000000000000000000000000009004806331feb67114610061578063381bbbe3146100a057806359ae069b146100c9578063cdfbb351146100f2575b600080fd5b34801561006d57600080fd5b506100886004803603610083919081019061096f565b61011b565b60405161009793929190610b8e565b60405180910390f35b3480156100ac57600080fd5b506100c760048036036100c291908101906109b0565b610419565b005b3480156100d557600080fd5b506100f060048036036100eb9190810190610a1c565b61050c565b005b3480156100fe57600080fd5b50610119600480360361011491908101906109b0565b6106df565b005b606080606060006001856040518082805190602001908083835b60208310151561015a5780518252602082019150602081019050602083039250610135565b6001836020036101000a0380198251168184511680821785525050505050509050019150509081526020016040518091039020549050600081141515156101d6576040517f08c379a00000000000000000000000000000000000000000000000000000000081526004016101cd90610c1a565b60405180910390fd5b6101de6107d2565b6000600183038154811015156101f057fe5b906000526020600020906003020160606040519081016040529081600082018054600181600116156101000203166002900480601f0160208091040260200160405190810160405280929190818152602001828054600181600116156101000203166002900480156102a35780601f10610278576101008083540402835291602001916102a3565b820191906000526020600020905b81548152906001019060200180831161028657829003601f168201915b50505050508152602001600182018054600181600116156101000203166002900480601f0160208091040260200160405190810160405280929190818152602001828054600181600116156101000203166002900480156103455780601f1061031a57610100808354040283529160200191610345565b820191906000526020600020905b81548152906001019060200180831161032857829003601f168201915b50505050508152602001600282018054600181600116156101000203166002900480601f0160208091040260200160405190810160405280929190818152602001828054600181600116156101000203166002900480156103e75780601f106103bc576101008083540402835291602001916103e7565b820191906000526020600020905b8154815290600101906020018083116103ca57829003601f168201915b505050505081525050905080600001518160200151826040015182925081915080905094509450945050509193909250565b60006001836040518082805190602001908083835b602083101515610453578051825260208201915060208101905060208303925061042e565b6001836020036101000a0380198251168184511680821785525050505050509050019150509081526020016040518091039020549050600081141515156104cf576040517f08c379a00000000000000000000000000000000000000000000000000000000081526004016104c690610bfa565b60405180910390fd5b816000600183038154811015156104e257fe5b906000526020600020906003020160000190805190602001906105069291906107f4565b50505050565b60006001836040518082805190602001908083835b6020831015156105465780518252602082019150602081019050602083039250610521565b6001836020036101000a03801982511681845116808217855250505050505090500191505090815260200160405180910390205490506000811415156105c1576040517f08c379a00000000000000000000000000000000000000000000000000000000081526004016105b890610bda565b60405180910390fd5b600060606040519081016040528086815260200185815260200184815250908060018154018082558091505090600182039060005260206000209060030201600090919290919091506000820151816000019080519060200190610626929190610874565b506020820151816001019080519060200190610643929190610874565b506040820151816002019080519060200190610660929190610874565b505050506000805490506001846040518082805190602001908083835b6020831015156106a2578051825260208201915060208101905060208303925061067d565b6001836020036101000a03801982511681845116808217855250505050505090500191505090815260200160405180910390208190555050505050565b60006001836040518082805190602001908083835b60208310151561071957805182526020820191506020810190506020830392506106f4565b6001836020036101000a038019825116818451168082178552505050505050905001915050908152602001604051809103902054905060008114151515610795576040517f08c379a000000000000000000000000000000000000000000000000000000000815260040161078c90610bfa565b60405180910390fd5b816000600183038154811015156107a857fe5b906000526020600020906003020160020190805190602001906107cc9291906107f4565b50505050565b6060604051908101604052806060815260200160608152602001606081525090565b828054600181600116156101000203166002900490600052602060002090601f016020900481019282601f1061083557805160ff1916838001178555610863565b82800160010185558215610863579182015b82811115610862578251825591602001919060010190610847565b5b50905061087091906108f4565b5090565b828054600181600116156101000203166002900490600052602060002090601f016020900481019282601f106108b557805160ff19168380011785556108e3565b828001600101855582156108e3579182015b828111156108e25782518255916020019190600101906108c7565b5b5090506108f091906108f4565b5090565b61091691905b808211156109125760008160009055506001016108fa565b5090565b90565b600082601f830112151561092c57600080fd5b813561093f61093a82610c67565b610c3a565b9150808252602083016020830185838301111561095b57600080fd5b610966838284610c9e565b50505092915050565b60006020828403121561098157600080fd5b600082013567ffffffffffffffff81111561099b57600080fd5b6109a784828501610919565b91505092915050565b600080604083850312156109c357600080fd5b600083013567ffffffffffffffff8111156109dd57600080fd5b6109e985828601610919565b925050602083013567ffffffffffffffff811115610a0657600080fd5b610a1285828601610919565b9150509250929050565b600080600060608486031215610a3157600080fd5b600084013567ffffffffffffffff811115610a4b57600080fd5b610a5786828701610919565b935050602084013567ffffffffffffffff811115610a7457600080fd5b610a8086828701610919565b925050604084013567ffffffffffffffff811115610a9d57600080fd5b610aa986828701610919565b9150509250925092565b6000610abe82610c93565b808452610ad2816020860160208601610cad565b610adb81610ce0565b602085010191505092915050565b6000600d82527f616c7265616479206578697374000000000000000000000000000000000000006020830152604082019050919050565b6000600e82527f75736572206e6f7420666f756e640000000000000000000000000000000000006020830152604082019050919050565b6000600e82527f55736572206e6f7420666f756e640000000000000000000000000000000000006020830152604082019050919050565b60006060820190508181036000830152610ba88186610ab3565b90508181036020830152610bbc8185610ab3565b90508181036040830152610bd08184610ab3565b9050949350505050565b60006020820190508181036000830152610bf381610ae9565b9050919050565b60006020820190508181036000830152610c1381610b20565b9050919050565b60006020820190508181036000830152610c3381610b57565b9050919050565b6000604051905081810181811067ffffffffffffffff82111715610c5d57600080fd5b8060405250919050565b600067ffffffffffffffff821115610c7e57600080fd5b601f19601f8301169050602081019050919050565b600081519050919050565b82818337600083830152505050565b60005b83811015610ccb578082015181840152602081019050610cb0565b83811115610cda576000848401525b50505050565b6000601f19601f830116905091905056fea265627a7a723058200b9b7d87b938a6a74745ad7ca2f254c5c7d42dc76d0785fde3d574b0a2b695bd6c6578706572696d656e74616cf50037",
  "source": "// SPDX-License-Identifier: MIT\r\npragma solidity >=0.4.22 <0.9.0;\r\npragma experimental ABIEncoderV2;\r\ncontract Auth{\r\n\r\n    struct User{\r\n        string name;\r\n        string email;\r\n        string password;\r\n    }\r\n\r\n    User[] user;\r\n    mapping(string =>uint) emailIndex;\r\n\r\n    function createUser(string memory _name, string memory _email, string memory _password) public {\r\n        uint index = emailIndex[_email];\r\n        require(index ==0 ,\"already exist\");\r\n        user.push(User(_name,_email,_password));\r\n        emailIndex[_email] = user.length;\r\n    }\r\n\r\n    function getUser(string memory _email) public view returns(string memory, string memory, string memory){\r\n        uint index = emailIndex[_email];\r\n        require(index != 0,\"User not found\");\r\n        User memory u = user[index -1];\r\n        return (u.name, u.email, u.password);\r\n    }\r\n\r\n    function updateName(string memory _email , string memory _name) public{\r\n        uint index = emailIndex[_email];\r\n        require(index !=0,\"user not found\");\r\n        user[index-1].name = _name;\r\n    }\r\n    function updatePassword(string memory _email , string memory _password) public{\r\n        uint index = emailIndex[_email];\r\n        require(index !=0,\"user not found\");\r\n        user[index-1].password = _password;\r\n    }\r\n\r\n\r\n\r\n\r\n}",
  "sourcePath": "D:\\justcoding~things\\UserAuthentication\\contracts\\Auth.sol",
  "compiler": {
    "name": "solc",
    "version": "0.5.1+commit.c8a2cb62.Emscripten.clang"
  },
  "schemaVersion": "3.4.16",
  "updatedAt": "2024-08-06T15:49:08.595Z",
  "networkType": "ethereum",
  "devdoc": {
    "methods": {}
  },
  "userdoc": {
    "methods": {}
  }
}